:020000040800F2
:1000000080060020010100086B2E00082D26000844
:10001000692E0008610D000825320008000000006C
:10002000000000000000000000000000B12E0008E9
:10003000710D0008000000006D2E0008B32E0008AE
:100040001B0100081B0100081B0100081B01000820
:100050001B0100081B0100081B0100081B01000810
:100060001B0100081B010008730D0008650D000846
:100070001B0100081B0100081B0100081B010008F0
:100080001B0100081B0100081B0100081B010008E0
:100090001B0100081B0100081B0100081B010008D0
:1000A0001B0100081B0100081B0100081B010008C0
:1000B0001B0100081D2F0008292F00081B01000844
:1000C0001B0100081B0100081B0100081B010008A0
:1000D0001B0100081B0100081B0100081B01000890
:1000E0001B0100081B0100081B010008DFF80CD0F1
:1000F00000F030FC00480047E93C00088006002082
:100100000648804706480047FEE7FEE7FEE7FEE7B1
:10011000FEE7FEE7FEE7FEE7FEE7FEE7192F000831
:10012000ED000008202A04DB203A21FA02F0002129
:10013000704721FA02F3D040C2F1200291400843F7
:1001400019467047D2B201E000F8012B491EFBD2DC
:1001500070470022F6E710B513460A4604461946D2
:10016000FFF7F0FF204610BD421E12F8013F002BA2
:10017000FBD111F8013B02F8013B002BF9D170478C
:10018000F0B480EA0102D40F4200B2EB410F02D278
:100190000246084611464A0042D0C30DDDB2C1F303
:1001A000C752AD1A202D35DAC1F3160141F4000211
:1001B00004B15242C5F1200602FA06F12A41104468
:1001C000B3EBD05F23D0C4B1012DA0EBC35009DC49
:1001D000F0BC4FF0004202EAC352DBB200F500006F
:1001E00000F0E5BA400000F1807000EBC350A0F1D0
:1001F000807040EAD170490009E0490841EAC071C5
:10020000A0EBC35000F50000400800EBC350F0BC69
:1002100000F0C4BA6142012202EB4101001BF6E783
:10022000F0BC704781F00041AAE780F00040A7E7EA
:1002300080EA010210B502F00043400022D04A00DB
:100240001FD0010E01EB1261C0F35600C2F356023B
:1002500040F4000042F40002A0FB022000047F39B9
:10026000140400D0401C50EA124001D44000491E42
:10027000C2B20C0604EBD010401C4008802A02D009
:1002800003E0002010BD20F00100002900DA00206A
:10029000184310BD30B480EA010202F0004530F08E
:1002A000004221F0004013D090B1C30DD40DC2F331
:1002B0001601C0F31600E41A41F4000140F40002F4
:1002C0007D34914201D3641C00E04900002C02DA25
:1002D00030BC002070474FF400000023914201D34E
:1002E000891A034340084FEA4101F7D151B19142C5
:1002F00002D14FF0004105E002D24FF0010101E0D0
:100300006FF0010103EBC450284430BC00F046BA42
:100310002DE9FE4F804681EA0300C00F0C46009095
:1003200021F0004123F00045B8EB0200A94105D2BD
:100330004046214690461C460B46024623F00040AC
:10034000104347D0270DC7F30A00C3F30A510290A8
:10035000401A019040286BDAC3F3130040F4801B6D
:100360000098924620B10023D2EB030A63EB0B0BFB
:1003700001985946C0F14002504600F0EEF9064699
:100380000D4650465946019A00F0F6F910EB080068
:100390006141002487EA115284EAE7731A4340D08E
:1003A000009A62B3019A012A4FEA075215DC001B3A
:1003B00061EB02014FF0004202EA0752CDE9004230
:1003C000001C41F5801132462B4600F02DFA03B097
:1003D000BDE8F08F40462146F9E7001B61EB0201C2
:1003E000001C41F5801300185B412018A2F500178E
:1003F00047EB030140EAD570B6196D4111E06D0875
:100400004FEA360645EAC0754FEA0752001B61EB1A
:100410000201001C41F5801149084FEA3000001923
:10042000514132462B4603B0BDE8F04F00F0EDB924
:100430000098012240000023D0EB020263EBE0733E
:10044000009821464FEAE074B8EB000061EB04012C
:10045000E9E783F000435BE781F0004158E72DE9CD
:10046000FE4F81EA030404F0004421F000410094AF
:100470004FF0000B23F0004350EA01045ED052EA33
:1004800003045BD0C3F30A54C1F30A552C44A4F20D
:10049000F3340194A0FB0254C1F3130141F4801121
:1004A000C3F3130343F4801301FB024400FB034E28
:1004B000840A970A44EA815447EA8357A4FB0768F1
:1004C00002958D0A05FB07854FEA932C04FB0C541B
:1004D0002705029D4FEA065847EA1637B5EB08058F
:1004E0006EEB070C870E920E47EA811742EA8312E1
:1004F000A7FB0201B6EB0B0164EB00042B0D43EAF2
:100500000C335E1844EB1C50DA465146E7FB0201FF
:10051000C5F313044FEA0B3343EA14534FEA043292
:10052000019C43EA0603A4F10C040294009CCDE96B
:1005300000B400F079F903B0BDE8F08F0020014667
:10054000F9E72DE9F04D81EA030404F0004B21F0B6
:10055000004514464FF0000A23F0004150EA05021E
:1005600020D054EA01021DD0C5F30A570246C5F354
:100570001303C1F31300C1F30A5640F4801543F48A
:100580008013A7EB0608101BD64608F2FD3873EB64
:10059000050002D308F1010801E092185B41B8F1AF
:1005A000000F03DA00200146BDE8F08D00204FF473
:1005B0008011064684460EE0171B73EB050705D332
:1005C000121B63EB050306434CEA010C49084FEA92
:1005D000300092185B4150EA0107EDD152EA030066
:1005E00012D082EA040083EA0501084305D0101BFB
:1005F000AB4106D20122002306E000224FF0004367
:1006000002E06FF0010253101AEB06004CEB0851A8
:1006100010EB0A0041EB0B01BDE8F04D00F0F5B81E
:10062000C10F80EAE0700844CA079623002100F059
:10063000BEB80EB5C10F80EAE0700844CA070021B9
:1006400040F233438DE80E000A460B4600F0ECF80A
:1006500003B000BD0EB540F2334102910021CDE957
:1006600000110A460B4600F0DFF803B000BD00F0B1
:10067000004230F000400AD0C10D01F56071C0F3B6
:10068000160042EA0151C20840071143704700209A
:100690000146704701F0004330B421F0004150EAB8
:1006A000010206D00A0DA2F56072C1F31301002AFF
:1006B00002DC30BC00207047440F44EAC104C10092
:1006C000E01830BC00EBC25000F068B830B50B4603
:1006D000014600202022012409E021FA02F59D4272
:1006E00005D303FA02F5491B04FA02F52844151E46
:1006F000A2F10102F1DC30BD2DE9F05F05460020DA
:1007000092469B4688460646814640241BE0284682
:10071000414647462246FFF705FD53465A46C01A52
:10072000914110D311461846224600F016F82D1AB2
:1007300067EB01084F4622460120002100F00DF82A
:1007400017EB00094E41201EA4F10104DFDC4846EE
:1007500031462A464346BDE8F09F202A04DB203A72
:1007600000FA02F1002070479140C2F1200320FA04
:1007700003F3194390407047202A06DBCB17203A39
:1007800041FA02F043EAE07306E041FA02F3D04096
:10079000C2F1200291400843194670470029A8BFC2
:1007A0007047401C490008BF20F00100704710B49A
:1007B000B0FA80FC00FA0CF050EA010404BF10BC4F
:1007C000704749B1CCF1200421FA04F411FA0CF17C
:1007D00018BF012121430843A3EB0C01CB1D4FEAB5
:1007E00000614FEA102042BF002010BC704700EBB0
:1007F000C35010440029A4BF10BC7047401C4900DE
:1008000008BF20F0010010BC704710B5141E73F132
:10081000000408DA401C41F1000192185B411A43C0
:1008200001D120F0010010BD2DE9F04D92469B460C
:1008300011B1B1FA81F202E0B0FA80F220329046B2
:10084000FFF78BFF04460F4640EA0A0041EA0B011E
:1008500053465A46084313D0114653EA010019D0B3
:10086000C8F140025046FFF75DFC05460E46504673
:1008700059464246FFF771FF084305D0012004E0C6
:1008800020463946BDE8F08D0020054346EAE07673
:100890002C4337430A986305E40AA0EB08000022C2
:1008A000FD0A44EA47540A3002D500200146E9E730
:1008B000010510196941DDE9084500196941BDE8E4
:1008C000F04DA2E770B521F0004303430CD0C1F313
:1008D0000A550024D5EB040564EB0403D617AD1AC2
:1008E000B34102DB0020014670BD201841EB0251EC
:1008F00070BDC1F30A52C1F3130140F2FF3341F45A
:1009000080119A4202DA00200146704740F23343D8
:100910009A42A2F2334202DC5242FFF703BCFFF7D5
:100920001CBF000030B5041E71F1000404DB4FF061
:100930000044404264EB0101141E73F1000405DB26
:100940001C464FF00043524263EB0403994208BF38
:10095000904230BD064C074D06E0E06840F00103D0
:1009600094E8070098471034AC42F6D3FFF7C2FB77
:1009700028640008486400082DE9F04D00231A4659
:100980001B1A8A4103DB00200146BDE8F08DC1F34C
:100990000A52C1F3130141F480154FF0000BD10747
:1009A00002D100186D41521E0027044640F2FF118B
:1009B000384601EB620A3E468046024600204FF46C
:1009C0008011FFF7AFFBC2197141BB1846EB010064
:1009D000B4EB030C75EB000C04D3E41A65EB0005D3
:1009E00017460E46241908F101006D41804634284F
:1009F000E3DDF91946EB0600091BA84103D24FF0CD
:100A0000FF32134601E0002213461BEB070046EBC2
:100A10000A51BDE8F04DFFF7F8BE000070B504467E
:100A200000688168C943C90717D1816821F00101B5
:100A3000816000F007FE05460AE000BF00F002FEFC
:100A4000401B022804D920688068C043C00706D034
:100A500020688068C043C007F0D0002070BDA06A45
:100A600040F01000A062E06A40F00100E062012066
:100A700070BD0000F8B50026044600960068816845
:100A8000C943C9072DD0816841F001018160164832
:100A900016490068B0FBF1F000E0401E009000280D
:100AA000FBD100F0CFFD054616E000BF00F0CAFD07
:100AB000401B022810D920688068C043C0070BD0B3
:100AC000A06A40F01000A062E06A40F00100E0621D
:100AD00084F824600120F8BD20688068C043C00706
:100AE000E4D10020F8BD00007400002040420F0057
:100AF00001F0BEBD10B5AA2000F04BF8154C2080C7
:100B0000AC2000F046F86080AE2000F042F8A080F3
:100B1000B02000F03EF8E080B22000F03AF82081EA
:100B2000B42000F036F86081B62000F032F8A081E1
:100B3000B82000F02EF8E081BA2000F02AF82082D8
:100B4000BC2000F026F86082BE2000F022F8A082CF
:100B500010BD00007C00002010B5044601F02EFE00
:100B6000EE2001F0F7FD01F06BFE204601F0F2FDF2
:100B700001F066FE01F022FEEF2001F0EBFD01F036
:100B80005FFE012001F0B0FD044601F037FE204673
:100B900010BD70B5044601F011FEEE2001F0DAFD43
:100BA00001F04EFE204601F0D5FD01F049FE01F0B6
:100BB00005FEEF2001F0CEFD01F042FE012001F024
:100BC00093FD0446002001F08FFD054601F016FE5E
:100BD00005EB042000B270BD10B53421F42000F004
:100BE000A7F8052003F058F8F620FFF7D2FF80B2EF
:100BF00010BD10B52E21F42000F09AF8052003F066
:100C00004BF8BDE81040F620FFF7C3BF70B5FFF703
:100C1000F0FF404CA061FFF7ECFFA061FFF7DCFFA5
:100C2000E0616289A169B4F91230891A2289DB0274
:100C30005143B4F91420C9130A4493FBF2F211444E
:100C400001F10802121162646163A1F57A61A16386
:100C500001FB01F2B4F90E3012135343DD12B4F963
:100C6000023002264B4305EBE323B4F9005006EBB8
:100C700085052B44DD1703EB95739B10E362B4F9F4
:100C80000450C01A4D4369132162B4F90C506A43F1
:100C900012141144891C8910C4E90921E28801F564
:100CA00000414A43D10B4CF2503250432163E06380
:100CB000B0F1004F03D24000B0FBF1F002E0B0FB16
:100CC000F1F040000112494340F6DE325143124A2E
:100CD000091442431214C4E90812114401F6CF6109
:100CE00000EB21102064FFF7A4FC00220B4BFFF760
:100CF00028FC0B4A0B4B03F045F900220A4BFFF787
:100D0000ABFB0022094BFFF7AAFBFFF7C3FCA06473
:100D100070BD00007C00002043E3FFFFD0BCF84022
:100D20006C45D9CC955BC83F0000F03F40A5E5403D
:100D300070B50D46044601F041FDEE2001F00AFDBC
:100D400001F07EFD204601F005FD01F079FD284609
:100D500001F000FD01F074FDBDE8704001F04EBDF2
:100D6000FEE70000014800F089BA00003C020020C4
:100D70007047102000F064BB704700002DE9FF4F62
:100D800083B089460446DDF840B00090A4E0802896
:100D90003ED20D2804D0202808D9203880B206E0A1
:100DA00009F110001FFA80F9009C2EE00020DFF806
:100DB00038A100264FF0800801900198002506EB2D
:100DC000001700BF1AF8071028FA05F0014206D0F4
:100DD00009EB060081B2601980B2059A09E0DDE9ED
:100DE0000501884207D009EB060081B2601980B284
:100DF000069A00F07DF86D1CEDB2082DE2D3761C4A
:100E0000F6B2102ED9D30834A4B20BF1010B63E073
:100E10004FF00008354808EB08119BF8002010F847
:100E2000113093424DD100EB4100019041789BF885
:100E30000100814245D100254FF0800A019800262B
:100E400000EB45072AFA06F0B978014206D009EB13
:100E5000050081B2A01980B2059A09E0DDE905011B
:100E6000884207D009EB050081B2A01980B2069A2A
:100E700000F03EF8761CF6B2082EE3D30026F9788F
:100E80002AFA06F0014207D009EB050081B2A01949
:100E9000083080B2059A0AE0DDE90501884208D0F1
:100EA00009EB050081B2A019083080B2069A00F063
:100EB0001FF8761CF6B2082EE1D36D1CEDB2102D92
:100EC000BCD308F101001FFA80F8B8F1320FA1D3AA
:100ED00010340BF1020BA4B29BF8000000287FF441
:100EE00056AF07B0BDE8F08FA84900081A570008B0
:100EF00010B514464A1C93B2421C92B201F02CFE6B
:100F00002046BDE8104001F0E1BC0000F8B5002427
:100F1000009490F824202546012A12D0012280F85E
:100F200024204A681F23072A0DD20668776B521EB9
:100F300002EB820293409F430B6893401F43776309
:100F400019E00220F8BD06680D2A0AD2376BD21FBD
:100F500002EB820293409F430B6893401F43376329
:100F600009E0F76A0D3A02EB820293409F430B6857
:100F700093401F43F7620A68072306680A2A0AD3C8
:100F8000F7680A3A02EB420293409F438B68934012
:100F90001F43F76008E0376902EB420293409F432A
:100FA0008B6893401F4337610A68102A01D0112AC9
:100FB00020D1124B02689A4217D193681B0219D4B0
:100FC000936843F4000393600968102912D10C4917
:100FD0000C4A0968B1FBF2F101EB8101490000E024
:100FE000491E00910029FBD104E0816A41F02001F3
:100FF0008162012480F824502046F8BD002401407D
:101000007400002040420F000068C06C7047000070
:101010002DE9F0414FF0000704003D467ED0A06A64
:10102000002628B9E66284F82460204600F07EF8A5
:101030002046FFF7F3FCA16AC90600D420B1A06ADC
:1010400040F01000A06269E0A16A21F4885141F0EB
:101050000201A1626268E169237B0A4347EA430116
:101060000A43A1684FF48077B94209D0012907D01B
:101070005FF0000194F814C0BCF1010F02D00AE047
:101080003946F7E7F3B1A36A43F02003A362E36AAA
:1010900043F00103E3622368D3F804C02CF4694CE5
:1010A0004CEA010CC3F804C021688B68DFF870C0FB
:1010B00003EA0C0313438B60A168B9420BD00129EA
:1010C00009D00CE0DFF85CC0A3690CEB43330B43A1
:1010D00043F40061DFE7218A0D05A5F5801521683D
:1010E000CB6A23F470032B43CB62216889680E4BD3
:1010F0001940914208D1E662A16A21F0020141F053
:101100000101A162BDE8F081A06A20F0020040F078
:101110001000A062E06A40F00100E0620120F1E707
:10112000FDF7E1FF00E0FFFFFE0E1FFF70B586B088
:1011300000250646009501950295039500681A4919
:1011400088422ED11949886940F400708861886905
:1011500000F400700490886940F004008861886998
:10116000694600F0040004900120009003200190E3
:101170000F4800F071F9104C0E48C4E900058020BA
:10118000C4E90250400020618000C4E90505C000A8
:10119000E061204600F01CF908B1FFF7EDFD346274
:1011A000666206B070BD00000024014000100240DD
:1011B00000080140080002403C02002070B50446CF
:1011C00090F8240001280DD0012084F82400204646
:1011D000FFF750FC02004FF0000005D084F8240017
:1011E000104670BD022070BDA16A40F201239943F0
:1011F00041F48071A1621F4D23681F49AB4218D191
:101200000E6816F4702F14D0A66A46F48016A662F3
:101210000E68760505D5A66A26F4005646F4805673
:10122000A662A66AF6040AD5E66A26F00606E66213
:1012300006E0A66A26F48016A6625E68E9E7E06228
:1012400084F824006FF00200186020688368C3F3FC
:101250004243072B05D1A84208D1096811F4702F29
:1012600004D0816841F480118160B9E7816841F45C
:10127000A001F9E700280140042401402DE9F05FB6
:10128000C16B0C6801680B68D0F840C0042202FAF8
:101290000CF2494DDFF824A1494E4A4FDFF828B13E
:1012A000DFF828E122422CD05A072AD50A68920694
:1012B00003D40A6822F004020A600168A94201D13D
:1012C000042219E0514501D1402215E0B14202D17A
:1012D0004FF4806210E0B94202D14FF480420BE03B
:1012E000594502D14FF4802206E0714502D14FF4F6
:1012F000800201E04FF080622F4908394A60C16ADC
:101300003BE04FF0020808FA0CF818EA040F4FF01F
:1013100000094FF0010235D05FEA837832D50B68BF
:101320009B0605D40B6823F00A030B6080F821208C
:101330000168A94201D1022219E0514501D12022C0
:1013400015E0B14202D14FF4007210E0B94202D16F
:101350004FF400520BE0594502D14FF4003206E041
:10136000714502D14FF4001201E04FF000721249B2
:1013700008394A6080F82090816A00291AD0BDE8B7
:10138000F05F0847082505FA0CF5254212D01B0727
:1013900010D50B6823F00E030B6090F84010C36B60
:1013A00002FA01F15960826380F8212080F82090D0
:1013B000016BE2E7BDE8F09F080002401C0002401C
:1013C0003000024044000240580002406C000240DD
:1013D00030B528B308C8134914221944B1FBF2F1FF
:1013E0008900C16310498163022141771A6843F67D
:1013F000F0718A43D0E900142143D0E902452C431F
:1014000021430469214344692143846921431143F1
:10141000196000214163012242770177084630BDFF
:10142000012030BDF8FFFDBF00000240102803D1AD
:101430000248C16A491CC1627047000004000020D4
:10144000044910B50A68024202D00860FFF7EEFFB7
:1014500010BD0000140401402DE9F84FDFF8B891E9
:10146000002409F1040A0AF1040B23460F270BF1AB
:10147000040EC9E00125A5402A40AA427DD1674E4D
:10148000D1F804C0ACEB0608B44532D014DCBCF192
:10149000030F3AD009DCBCF1000F2AD0BCF1010FD8
:1014A0001CD0BCF1020F31D11DE0BCF1110F17D0DF
:1014B000BCF1120F2AD119E0B8F5881F19D006DC4B
:1014C000B8F5803F15D0B8F5801F1FD111E0B8F5F1
:1014D000001F0ED0B8F5041F18D10AE0CB6815E044
:1014E000CB681B1D12E0CB6808330FE0CB680C33D0
:1014F0000CE08B682BB1012B4FF0080303D0456142
:1015000004E0042302E0056100E00023FF2A01D883
:10151000064601E000F104064FEA840501D9A5F171
:101520002005D6F8008007FA05FC28EA0C0803FA23
:1015300005F548EA0508C6F800804D68ED0062D55B
:10154000374DAE6946F00106AE61AD6924F0030681
:1015500005F001050095334D06EB050CDCF808504D
:10156000A607360F07FA06F825EA0805DFF8B8805F
:10157000404503D14FF0000817E044E0DFF8AC80AD
:10158000404502D14FF001080FE0DFF8A48040454C
:1015900002D14FF0020808E0DFF89880404502D100
:1015A0004FF0030801E04FF0040808FA06F848EA93
:1015B0000508CCF808804D68D9F80060ED034D4669
:1015C00001D5164300E096432E604D68DAF80060BE
:1015D000AD03554601D5164300E096432E604D6895
:1015E000DBF80060ED025D4601D5164300E096434E
:1015F0002E604D68DEF80060AD02754601D51643D9
:1016000000E096432E60641C0D682A46E5407FF496
:1016100031AFBDE8F88F0000000401400000111058
:10162000001002400000014000080140000C014091
:1016300000100140001401400AB101617047090423
:10164000FBE7000001488068704700006800002048
:101650000248816802781144816070476800002068
:10166000074810B5016841F010010160032000F047
:1016700079F8002000F006F800F024F8002010BDF2
:101680000020024070B50D4D04464FF47A71287861
:10169000B1FBF0F00A490968B1FBF0F000F066FB1D
:1016A00048B9102C07D200222146501E00F03AF80B
:1016B00000206C6070BD012070BD0000680000203B
:1016C000740000200E4808B5816941F00101816174
:1016D000816901F001010091C16941F08051C1614E
:1016E000C06900F080500090052000F03BF80548EC
:1016F000416821F0E06141F08061416008BD000077
:101700000010024000000140002809DB00F01F0229
:10171000012191404009800000F1E020C0F8001153
:1017200070470000F0B40E4B1B680C46C3F3022355
:10173000C3F10705042D00D90425191D072901D27D
:10174000002300E0DB1E012606FA05F1491E2140B8
:1017500099409E40761E16403143F0BC01F08CBD8E
:101760000CED00E0064900F0070208684FF6FF03A1
:10177000184040EA0220034A104308607047000006
:101780000CED00E00000FA052DE9F843054600786D
:10179000354CC00754D0E0690026C00008D4E06989
:1017A00040F08050E061E069012600F08050009038
:1017B0002E480168C90512D40168804641F4807141
:1017C0000160FFF73FFF074605E000BFFFF73AFF64
:1017D000C01B642823D8D8F80000C005F6D5206ABD
:1017E00010F4407021D0A98801F4407181421CD0CE
:1017F000206A1F49012220F440700A6000220A601A
:101800002062C00711D0FFF71DFF074641F288385C
:1018100008E000BFFFF716FFC11B414502D90320B6
:10182000BDE8F883206A8007F4D5206A696820F44F
:101830004070084320621EB1E06920F08050E061F2
:101840002878800705D56068A96820F440400843DF
:1018500060602878C00605D56068E96820F48000DB
:10186000084360600020DBE7001002400070004089
:10187000400442422DE9F0470F46050061D0434E37
:10188000306800F00700B84209D2306820F0070045
:1018900038433060306800F00700B84251D1286802
:1018A0003B4C810712D5400703D5606840F4E060E7
:1018B00060602878000703D5606840F4605060607D
:1018C0006068A96820F0F000084360602878C007CD
:1018D00028D06868012810D02168022810D0890714
:1018E00000292EDA616821F0030101436160FFF7EE
:1018F000A9FE804641F288390DE021688903EFE7AF
:101900008901EDE7FFF79EFEA0EB0801494502D9EA
:101910000320BDE8F0876068696800F00C00B0EB58
:10192000810FEFD1306800F00700B8420BD9306862
:1019300020F0070038433060306800F00700B842FC
:1019400001D00120E5E72878400705D56068E968FF
:1019500020F4E060084360602878000706D56068DE
:10196000296920F4605040EAC100606000F038F856
:101970006168084AC1F30311515CC8400649086018
:1019800006480068FFF77EFE0020C2E70020024004
:101990000010024080630008740000206C000020EA
:1019A0000448054900684968044AC1F30221515CB2
:1019B000C840704774000020001002409063000887
:1019C0000448054900684968044AC1F3C221515CD2
:1019D000C840704774000020001002409063000867
:1019E00012A185B00FC98DE80F0014A0144A006839
:1019F00004905168134801F00C03042B10D0082BFD
:101A00000ED1C1F38343C9031DF803000AD5516801
:101A100004AAC1F34041515C0A4A5043B0FBF1F0C3
:101A200005B0704708494843FAE70000020304057F
:101A3000060708090A0B0C0D0E0F1010010200001A
:101A40000010024000127A0000093D002DE9F84F15
:101A5000040070D02078C04DC00749D06868C0F33A
:101A60008100012807D06868C0F38100022809D1ED
:101A70006868C00306D52868800339D560680028E7
:101A8000E7D035E06068B0F5803F0BD010B1B0F51D
:101A9000A02F11D0286820F480302860286820F416
:101AA000802002E0286840F480302860606890B1AF
:101AB000FFF7C8FD06460AE0286840F48020286049
:101AC000F0E700BFFFF7BEFD801B642873D82868CD
:101AD0008003F7D50CE0FFF7B5FD064605E000BF33
:101AE000FFF7B0FD801B6428F0D828688003F7D486
:101AF00020789A4E80074FF001094FF0000839D541
:101B0000686810F00C0F07D06868C0F381000228E5
:101B100009D16868C00306D42868800714D52069F5
:101B2000012808D110E02069B0B1C6F80090FFF795
:101B300089FD074605E00AE1FFF784FDC01B022886
:101B4000C4D828688007F7D52868616920F0F800B4
:101B500040EAC10028600DE0C6F80080FFF772FD82
:101B6000074604E0FFF76EFDC01B022823D8286853
:101B70008007F7D4207800072CD57948A169D9B11E
:101B8000C0F80090FFF75EFD074604E0FFF75AFD3E
:101B9000C01B02280FD8686A8007F7D571484FF438
:101BA000FA510068B0FBF1F0009000BF0098411EB0
:101BB0000091FAD20EE080E0C0F80080FFF742FD0D
:101BC000074604E0FFF73EFDC01B022875D8686A8F
:101BD0008007F7D42078400760D5E8690027C00067
:101BE00008D4E86940F08050E861E869012700F016
:101BF000805000905C480168C90513D40168834691
:101C000041F480710160FFF71DFD824606E000BFD0
:101C1000FFF718FDA0EB0A0064284ED8DBF800009F
:101C2000C005F5D5E06801280AD008B1052813D011
:101C3000286A20F001002862286A20F0040002E0EF
:101C4000286A40F001002862E06841F2883B98B1C0
:101C5000FFF7F8FC82460BE0286A40F00400286297
:101C6000EEE700BFFFF7EEFCA0EB0A0159455AD89A
:101C7000286A8007F6D50CE0FFF7E4FC824605E011
:101C8000FFF7E0FCA0EB0A0159454CD8286A800711
:101C9000F6D41FB1E86920F08050E861E06988B3AC
:101CA0006968C1F38101022944D00228C6F8608026
:101CB00004D0FFF7C7FC044638E034E0FFF7C2FC6D
:101CC000074604E0FFF7BEFCC01B02282BD828689B
:101CD0008001F7D4206AB0F5803F05D16868A1681B
:101CE00020F4003008436860D4E9080108436968BB
:101CF00021F4741108436860C6F86090FFF7A2FCF5
:101D0000044606E025E000BFFFF79CFC001B02280C
:101D100009D828688001F7D51BE000BFFFF792FCC7
:101D2000001B022802D90320BDE8F88F2868800133
:101D3000F4D40EE00128F7D06868226A00F48031FC
:101D4000914204D1616A00F47010884201D00120F0
:101D5000EAE70020E8E700000010024000004242ED
:101D600080044242740000200070004010B5401E04
:101D7000B0F1807F01D3012010BD4FF0E0246061FD
:101D80000F21601701F078FA0020A0610720206180
:101D9000002010BD7047704770B590F83C20012AB4
:101DA00026D0012480F83C40022280F83D200368C0
:101DB0005A689D6822F070060A6832435A600D4BDB
:101DC00002689A4208D0B2F1804F05D00A4B9A427D
:101DD00002D00A4B9A4204D1496825F08003194386
:101DE000916080F83D40002180F83C10084670BDAD
:101DF000022070BD002C014000040040000800409B
:101E000010B5040003D094F83D0010B107E00120A4
:101E100010BD002084F83C00204600F01FF802208E
:101E200084F83D00211D206801F084F8012084F829
:101E3000460084F83E0084F83F0084F8400084F8AF
:101E4000410084F8420084F8430084F8440084F898
:101E5000450084F83D00002010BD000008B5154A7B
:101E60000168154891420ED1C16941F00201C1617A
:101E7000C069002200F00200009011461D20FFF70B
:101E800051FC1D2010E00D4A914211D1C16941F071
:101E90000401C161C069012200F0040000901146F4
:101EA0001E20FFF73FFC1E20BDE80840FFF72CBCBA
:101EB00008BD00000004004000100240000800407F
:101EC00090F83D10012901D001207047022180F8CF
:101ED0003D100168CA6842F00102CA6000680B49FF
:101EE000884208D0B0F1804F05D00949884202D01D
:101EF0000849884204D1816801F00701062903D00E
:101F0000016841F00101016000207047002C014090
:101F1000000400400008004070B5044690F83C0002
:101F2000012817D0012584F83C50022084F83D0098
:101F30002068826822F0770222F47F42826008687B
:101F4000502830D00DDC20284DD005DC98B3102867
:101F50003BD148E0022070BD302844D0402834D125
:101F600039E0602828D0702806D0B0F5805F2CD0EA
:101F7000B0F5005F29D10AE0CB68D1E901212068E2
:101F800001F01BF82068816841F0770109E0CB6817
:101F9000D1E90121206801F010F82068816841F43E
:101FA0008041816011E0CA684968206801F0BAF890
:101FB0005021206807E016E0CA684968206801F0EF
:101FC000C2F86021206801F002F884F83D5000203A
:101FD00084F83C0070BDCA684968206801F0A2F826
:101FE00040212068EFE7226801461046EBE7704782
:101FF00070B50446006801694FF00005C9438907C0
:1020000015D4C168C943890711D4E91E01610120B3
:102010002077206880698007204602D0FFF7E7FF1D
:1020200004E000F0BBF8204600F05CF9257720685A
:102030000169C943490717D4C168C943490713D483
:102040006FF004010161022020772068806910F49C
:10205000407F204602D0FFF7CAFF04E000F09EF860
:10206000204600F03FF9257720680169C943090738
:1020700016D4C168C943090712D46FF00801016181
:10208000042020772068C0698007204602D0FFF72F
:10209000AEFF04E000F082F8204600F023F9257737
:1020A00020680169C943C90617D4C168C943C90674
:1020B00013D46FF010010161082020772068C069F7
:1020C00010F4407F204602D0FFF791FF04E000F0BB
:1020D00065F8204600F006F9257720680169C943B4
:1020E000C90708D1C168C943C90704D1891E016164
:1020F000204600F047F920680169C943090609D460
:10210000C168C943090605D46FF08001016120460A
:10211000FFF740FE20680169C943490609D4C16838
:10212000C943490605D46FF040010161204600F023
:1021300013FA20680169C94389060BD4C168C943F1
:10214000890607D46FF0200101612046BDE8704088
:10215000FFF721BE70BD000000B585B000210091E1
:102160000191029103910068B0F1804F10D10948AC
:10217000816941F0040181618069694600F00400D1
:10218000049002200090019003900348FFF764F947
:1021900005B000BD0010024000080140704770B556
:1021A000044690F83C000D4601280AD0012084F82E
:1021B0003C0042B1042A18D0082A2AD00C2A4DD15A
:1021C00039E0022070BD206800F00AFF20688169B4
:1021D00041F0080181612068816921F00401816179
:1021E000206881692A69114311E0206800F020FF0E
:1021F0002068816941F4006181612068816921F46E
:1022000080618161206881692A6941EA02218161D6
:1022100024E0206800F038FF2068C16941F008011F
:10222000C1612068C16921F00401C1612068C169F0
:102230002A69114311E0206800F052FF2068C1694B
:1022400041F40061C1612068C16921F48061C1610C
:102250002068C1692A6941EA0221C161002084F82D
:102260003C0070BD10B5040003D094F83D0010B1DF
:1022700007E0012010BD002084F83C00204600F05B
:102280001FF8022084F83D00211D206800F052FE56
:10229000012084F8460084F83E0084F83F0084F86A
:1022A000400084F8410084F8420084F8430084F838
:1022B000440084F8450084F83D00002010BD000073
:1022C00008B50068B0F1804F08D10548C16941F0F8
:1022D0000101C161C06900F00100009008BD00006B
:1022E000001002407047000010B50446022249B1B8
:1022F00004290ED0082913D094F84100012816D0E3
:10230000012010BD94F83E000128F9D184F83E2048
:102310000FE094F83F000128F2D184F83F2008E054
:1023200094F840000128EBD184F8402001E084F8C3
:1023300041200122206800F033FE0F4920688842C6
:1023400003D1426C42F4004242642068884208D0C3
:10235000B0F1804F05D00949884202D0084988422F
:1023600004D1816801F00701062903D0016841F01A
:1023700001010160002010BD002C0140000400405C
:10238000000800402DE9F0476E4900680025096803
:102390006D4C88427DD16B487838FEF735FE800859
:1023A00020646069801C6061A169401A60646548AE
:1023B0007838FEF703FF626A206C052190420BDA41
:1023C0002369666C93FBF1F303EB4303B34203DA37
:1023D000236A984200DA2062904203DDE369984262
:1023E00000DDE061636CDFF8649101264FF4005872
:1023F000FA2B43DD904241DD207838BB206990FB09
:10240000F1F000EB4000984238DA26700022414695
:102410004846FFF711F9D4E90501421A2261A0618B
:102420004849E078D43168B1A36C17465B1C184664
:10243000A36402E041F82070401C0A28FADB0A2B52
:1024400000D1A564A07810B1A570E67016E0002355
:102450004FEA030001EB80077F6841F82070401CC1
:102460003B440828F6DDD0184A620A21B0FBF1F09F
:102470004EF66021B1FBF0F0E0636670616A206C9B
:10248000884215DA2078012812D1012241464846B7
:1024900000E01DE0FFF7D0F82570D4E90710091A15
:1024A000A16201EBD17100EB61006062E06120622A
:1024B000606C40F6C411884208DD4FF40070606221
:1024C000E06120626069A061A670E570BDE8F087F8
:1024D0001C49483109688842F8D1A06B401C8046ED
:1024E000A063E06AFEF7B6F80022194BFEF729F860
:1024F000FEF7D0F82063E66C0746761C4046E6649B
:10250000FEF78EF83946FDF793FE1249FDF7C2FE3D
:10251000616BFDF735FEE56260630A484838062EB8
:1025200003D302684FF4FA7191630C2E02D3026850
:10253000C8219163122EC9D300684FF4967181634C
:10254000E564C3E7400100200400002000100140C2
:1025500000E0604000007A44704770B5040004D089
:1025600094F83D00002510B106E0012070BD84F80C
:102570003C50204600F022F8242084F83D002068DA
:10258000C16821F40051C160204600F0EFFD2068D1
:10259000016921F4904101612068416921F02A011B
:1025A00041612068C16841F40051C1602564202068
:1025B00084F83D0084F83E00002070BD30B585B041
:1025C0000024009401940294039400681449884202
:1025D00023D11448C16941F40031C161C16901F4DA
:1025E00000310491816941F00401816180690E4DDF
:1025F00000F00400049004200090022001900320C9
:10260000039069462846FEF727FF0820CDE900041D
:10261000694628460294FEF71FFF05B030BD000052
:10262000004400400010024000080140FEE70000A6
:1026300070B50D4C0025C4F898510C48016821F084
:1026400070410160016841F040510160C4F89C5143
:10265000022004F5CC7401F033FB0120206002203D
:1026600001F02EFB256070BD00802142000C01406E
:102670000B4800B5816985B041F00801816180692E
:10268000694600F008000490C020009011200190DD
:10269000032003900348FEF7DFFE05B000BD0000F5
:1026A00000100240000C014070B50D4C0025C4F82C
:1026B00098510C48016821F070410160016841F0B7
:1026C000405101600126C4F89C61022004F5CC74DD
:1026D00001F0F6FA2660022001F0F2FA256070BDE2
:1026E00000802142000C01402DE9F0478146174847
:1026F0000024016821F070410160016841F000414F
:102700000160134E254627464FF00108C6F8987120
:10271000022001F0D5FAC6F898816006040ED6F8BA
:102720001C0108B1641CE4B2012001F0C9FA6D1C5F
:10273000EDB2082DEAD3B9F1000F04D0FFF778FF0E
:102740002046BDE8F087FFF7AFFFF9E7000C014036
:10275000008021422DE9F04106461648016821F02B
:1027600070410160016841F040510160124C002746
:10277000C4F898713D464FF00108300602D5C4F800
:102780009C8101E0C4F89C717006060E022001F0E5
:1027900097FAC4F89881022001F092FAC4F898716F
:1027A000022001F08DFA6D1CEDB2082DE5D3BDE8D5
:1027B000F0810000000C01400080214270B50D48FE
:1027C000016821F070410160016841F040510160F1
:1027D000094C0120C4F89C01C4F89801042004F5B8
:1027E000CC7401F06DFA00256560042001F068FAF0
:1027F000256070BD000C0140008021420E4810B5DC
:10280000016821F070410160016841F040510160B0
:102810000A4C0020C4F89801C4F89C01042004F577
:10282000CC7401F04DFA012020606060BDE81040DA
:10283000042001F045BA0000000C01400080214254
:1028400070B513480024016821F0704101600168EF
:1028500041F0004101600F4D0126C5F89C613046F2
:1028600001F02EFAC5F89861012001F029FA07E07D
:10287000641CE4B2FA2C03D9FFF7C0FF012070BD3D
:10288000D5F81C010028F3D1C5F8980170BD0000EF
:10289000000C0140008021427FB540F20340012539
:1028A000CDE900050324694603940648FEF7D4FDEC
:1028B000B020CDE90005694603940348FEF7CCFD3E
:1028C0007FBD0000000C01400008014070B50C4DB8
:1028D0000446002210212846FEF7AEFE0122022106
:1028E0000848FEF7A9FE200A00F0C2FAE0B200F0A4
:1028F000BFFA2846BDE8704001221021FEF79CBEB9
:1029000000080140000C014010B5FFF7C5FF00F0C2
:102910000DF9112000F06AF9782001F0BDF9B1201D
:1029200000F064F9012000F045F92C2000F042F994
:102930002D2000F03FF9B22000F058F9012000F0FE
:1029400039F92C2000F036F92D2000F033F9B320AE
:1029500000F04CF9012000F02DF92C2000F02AF9AC
:102960002D2000F027F9012000F024F92C2000F0A0
:1029700021F92D2000F01EF9B42000F037F90720CE
:1029800000F018F9C02000F031F9A22000F012F98F
:10299000022000F00FF9842000F00CF9C12000F0B3
:1029A00025F9C52000F006F9C22000F01FF90A2021
:1029B00000F000F9002000F0FDF8C32000F016F947
:1029C0008A2000F0F7F82A2000F0F4F8C42000F084
:1029D0000DF98A2000F0EEF8EE2000F0EBF8C520AB
:1029E00000F004F90E2000F0E5F8362000F0FEF8C3
:1029F000C82000F0DFF8E02000F0F8F80F2000F029
:102A0000D9F81A2000F0D6F80F2000F0D3F81820DB
:102A100000F0D0F82F2000F0CDF8282000F0CAF800
:102A2000202000F0C7F8222000F0C4F81F2000F09A
:102A3000C1F81B2000F0BEF8232000F0BBF83720BF
:102A400000F0B8F8002000F0B5F8072000F0B2F868
:102A5000022000F0AFF8102000F0ACF8E12000F008
:102A6000C5F80F2000F0A6F81B2000F0A3F80F20F7
:102A700000F0A0F8172000F09DF8332000F09AF83D
:102A80002C2000F097F8292000F094F82E2000F078
:102A900091F8302000F08EF8302000F08BF83920CB
:102AA00000F088F83F2000F085F8002000F082F860
:102AB000072000F07FF8032000F07CF8102000F0E1
:102AC00079F82A2000F092F8002000F073F8002036
:102AD00000F070F8002000F06DF87F2000F06AF838
:102AE0002B2000F083F8002000F064F8002000F0B4
:102AF00061F8002000F05EF89F2000F05BF8F02005
:102B000000F074F8012000F055F8F62000F06EF89F
:102B1000002000F04FF83A2000F068F8052000F09F
:102B200049F8BDE81040292000F060B810B5094C04
:102B3000002201212046FEF77FFD642001F0ACF861
:102B4000012211462046FEF777FDBDE810403220F5
:102B500001F0A2B8000C01402DE9F04107461C46E7
:102B600015460E462A2000F041F8002000F022F819
:102B7000BF1CF8B200F01EF8002000F01BF8AD1CDE
:102B8000E8B200F017F82B2000F030F8002000F039
:102B900011F8F61CF0B200F00DF8002000F00AF871
:102BA000E41CE0B200F006F8BDE8F0412C2000F093
:102BB0001DB8000070B50B4C0546002210212046C0
:102BC000FEF73AFD012202210748FEF735FD2846AF
:102BD00000F04EF92046BDE8704001221021FEF7BA
:102BE0002BBD000000080140000C014070B50B4CEB
:102BF0000546002210212046FEF71EFD002202217C
:102C00000748FEF719FD284600F032F92046BDE8D6
:102C1000704001221021FEF70FBD000000080140A6
:102C2000000C01403EB500240D480094019402942C
:102C30000A498460016004730475012505614FF43D
:102C400060214460C161FEF7E3F902200094CDE900
:102C5000015069460248FEF759F93EBD0024014083
:102C6000C80000202DE9F04385B0002436480094C8
:102C7000019402940394816941F01001816181699A
:102C800001F010010491816941F0200181618169A5
:102C900001F020010491816941F0040181618169A1
:102CA00001F004010491816941F0080181618069AA
:102CB000264E00F008004FF40055049000222946EB
:102CC0003046FEF7B9FCDFF888800022B02140468C
:102CD000FEF7B2FCDFF87C9040F203470022394651
:102CE0004846FEF7A9FC0220CDE9024000950125E7
:102CF000694601953046FEF7AFFBB0200326CDE9CB
:102D00000005CDE9024669464046FEF7A5FB00975F
:102D10000396CDE9015469464846FEF79DFB102015
:102D200000900D48CDE9010569464846FEF794FB41
:102D3000002201210A20FEF7F5FC0A20FEF7E4FC40
:102D400005B0BDE8F0830000001002400010014013
:102D500000080140000C01400000111010B58AB0BD
:102D6000002407941C2168460894FDF7F2F91248E4
:102D70004FF0804101604721C0E901144FF47A719E
:102D8000C0E903148461FFF76DFA079407A90A48A4
:102D90000894FFF701F8602000904FF49670CDE999
:102DA00001040422694604480494FFF7F8F9024834
:102DB000FFF7D2F90AB010BDF800002010B586B0B8
:102DC00000241248009401940294039404940E4940
:102DD000059401604721C0E9011440F2CF71C0E9B8
:102DE000031480218161FFF70BF84FF480500090AD
:102DF00069460648FFF790F8049404A9034805942F
:102E0000FEF7CAFF06B010BD0004004040010020DC
:102E100010B586B0002413480094019402940394E2
:102E200004940F490594016048F69F41C0E90114DC
:102E300040F2CF71C0E9031480218161FEF7E0FF09
:102E40004FF48050009069460648FFF765F80494F7
:102E500004A904480594FEF79FFF06B010BD0000CA
:102E60000008004088010020FEE77047704700001E
:102E700070B50E4E05460824280601D5012200E053
:102E8000002280213046FEF7D7FB00222021304669
:102E9000FEF7D2FB012220213046FEF7CDFB68066B
:102EA000050E641E14F0FF04E6D170BD0008014059
:102EB0007047FEF7CDBB30B593B028216846FDF7CB
:102EC00048F914210AA8FDF744F9002401200F94C1
:102ED00010941194010412948DE8130004904FF49F
:102EE000E010CDE90810022507956846FEF7AEFD13
:102EF0000F20CDE90A056802CDE90C4002210AA89D
:102F00000E94FEF7B7FC4FF4404011900F950FA8B8
:102F1000FEF73AFC13B030BD704700000148FFF7E0
:102F200067B80000400100200148FFF761B80000C9
:102F300088010020F0B50268164B174C174D4FF072
:102F40008047984205D0B84203D0A04201D0A842A1
:102F500003D122F070064A683243984205D0B84245
:102F600003D0A04201D0A84203D122F44074CA6821
:102F700022434C6922F08002224302608A68C262C6
:102F80000A688262984201D10969016301214161A5
:102F9000F0BD0000002C014000040040000800408B
:102FA00010B501F01F030121046A99408C430462AB
:102FB000016A9A401143016210BD10B5846842EA6B
:102FC000032224F47F440A432243826010BD8268B6
:102FD00022F070020A4342F007018160704700004E
:102FE00030B5026A22F001020262026A4368846913
:102FF00024F073050C682C4322F002058A682A43EA
:103000000A4DA8420BD122F00805CA6823F4407388
:103010002A434D6922F004021D438B692B43436010
:10302000846149684163026230BD0000002C0140A8
:1030300030B5026A22F010020262026A43688469B3
:103040000D6824F4E64444EA05248D6822F0200249
:1030500042EA05120B4DA8420ED1CD6822F0800243
:1030600042EA05124D6923F4406343EA85038D6902
:1030700022F0400243EA850343608461496881632A
:10308000026230BD002C014030B5026A22F4807229
:103090000262036A4268C46923F4007324F0730572
:1030A0000C682C438D6843EA05230C4DA8420ED1D1
:1030B000CD6823F4006343EA05234D6922F44052AE
:1030C00042EA05128D6923F4806342EA05124260E8
:1030D000C4614968C163036230BD0000002C014037
:1030E00030B5026A22F480520262046A4268C369FF
:1030F0000D6823F4E64343EA05238D6824F4005465
:1031000044EA0534064DA84204D14D6922F48042B8
:1031100042EA85124260C36149680164046230BDBD
:10312000002C014010B5036A046A24F00104046213
:10313000846924F0F00444EA021423F00A020A43EA
:103140008461026210BD10B5036A23F010030362AC
:103150008369046A23F4704343EA023224F0A00333
:1031600043EA01118261016210BD000070B504469E
:1031700000680169E26821F440511143016121694D
:10318000A0680843616908432168CA6841F20C637A
:103190009A430243CA6020684169A26921F44071E0
:1031A000114341611E492068884202D1FEF708FCA4
:1031B00001E0FEF7F5FB00EBC00101EB00126068D7
:1031C00064218000B2FBF0F3B3FBF1F36FF018065B
:1031D0007343B2FBF0F5B2FBF0F605EB8305322347
:1031E00003EB0515B5FBF1F5B6FBF1F605F0F005BF
:1031F00005EB0615B2FBF0F6B2FBF0F0B0FBF1F018
:103200006FF01802504306EB800003EB0010B0FB98
:10321000F1F0216800F00F002844886070BD0000C4
:1032200000380140FEE700000FB4084B10B504A9B8
:1032300002AA039800F07EF9044602A9002000F0DB
:1032400010FD204610BC5DF814FB0000633C000834
:10325000490050EAC12018BF04204A0D18BF40F0B1
:10326000010040F2FF72B2EB515F08BF40F0020074
:10327000012808BF052070470907090E002804DB54
:1032800000F1E02080F80014704700F00F0000F11A
:10329000E02080F8141D70472DE9F0414F1E00EB2F
:1032A000C7010446D1E9000115461E4637F0060263
:1032B0000DD02A463346FDF7D2F87F1E04EBC70334
:1032C000D3E90023FDF724F837F00602F1D1022FED
:1032D00025D0042F13D0062F18BFBDE8F0812A4651
:1032E0003346FDF7BCF8D4E90A23FDF711F82A4666
:1032F0003346FDF7B4F8D4E90823FDF709F82A4668
:103300003346FDF7ACF8D4E90623FDF701F82A4669
:103310003346FDF7A4F8D4E90423FCF7F9FF2A4665
:103320003346FDF79CF8D4E90223FCF7F1FF2A4667
:103330003346FDF794F8D4E90023BDE8F041FCF7EB
:10334000E7BF00000022134610460149FDF7F9B817
:103350000000F03FFCF7DCBF002213461046114688
:10336000FDF7EFB840F2013200204FF0E041FDF7E9
:10337000A9BA0000024A00201107FDF7A3BA000015
:1033800001FDFFFF02E008C8121F08C1002AFAD1A0
:1033900070477047002001E001C1121F002AFBD1D5
:1033A0007047000001490860704700007800002065
:1033B0002DE9FF5F82B00021DDE90430020DDDF868
:1033C00040B0034318D044F61050A2F2FF324243FB
:1033D0001514119801281FD0A5EB0B00401C5FEAC3
:1033E000000A4FF000064E4FDFF83891B0465046C5
:1033F00015D5CAF1000413E0119801244AA301284D
:1034000001D16FEA0B010298119AC0E90031C0E9BD
:10341000024206B0BDE8F09FCBF10000DFE70446B2
:103420000021404A491842EB0450CDE9001012E057
:10343000E00707D032463B4640464946FDF70FF8C5
:103440008046894632463B4610461946FDF707F846
:1034500006460F466410002CEAD1DDE90401DDE9DF
:103460000023BAF1000F06DAFCF7F9FF42464B469B
:10347000FCF7F5FF05E0FDF764F842464B46FDF723
:1034800060F804460E460022284BFDF74BFA03D89D
:103490004FF0FF30014607E00022254B2046314621
:1034A000FCF736FFFDF725FA102409E0002C0ADBB3
:1034B0000A220023FDF720F9039B30321A55641EBF
:1034C00050EA0102F2D1641C039AC4F111031444BE
:1034D000119A012A03D0012208430DD10AE00843C2
:1034E00004D000204FF0110B119072E7A3EB0B05F5
:1034F0006D1E0DE05B4504DD4FF0000205F1010596
:1035000004E003DA4FF00002A5F10105002AECD037
:1035100002981199C0E90231C0E9004579E700003D
:10352000000014400000F03F300000000000F043B5
:103530000000E03F2DE9FF4F95B09B4689460646C7
:1035400000250FE2252877D100242746F84A0121DB
:10355000059400E0044316F8013F203B01FA03F014
:103560001042F7D130782A2811D06FF02F0330782D
:10357000A0F13002092A16D8059A44F0020402EBA1
:10358000820203EB42021044761C0590EFE759F8E3
:10359000042B0592002A03DA504244F400540590AB
:1035A00044F00204761C30782E2816D116F8010F4C
:1035B00044F004042A280DD06FF02F023078A0F1D7
:1035C0003003092B09D807EB870302EB4303C71825
:1035D000761CF3E759F8047B761C30786C280FD002
:1035E00006DC4C2817D068280DD06A2814D104E0D6
:1035F000742810D07A280FD10DE044F400140AE0AA
:1036000044F4801401E044F440147278824202D100
:1036100004F58014761C761C307866280BD013DCF9
:10362000582877D009DC002875D04528F6D04628E0
:10363000F4D047281AD19DE118E0632835D06428DA
:1036400079D0652812D195E1702873D008DC6728FD
:10365000F1D069286FD06E280DD06F2806D1B5E063
:1036600073282CD0752875D0782874D05A461799AD
:1036700090476D1C75E1C4F30250022809D003285D
:103680000DD0D9F8001004280DD00D6009F10409FF
:1036900067E1D9F80010EA17C1E90052F6E7D9F856
:1036A00000100D80F2E70D70F0E719F8041B8DF89B
:1036B000001000208DF80100EA46012003E059F8CF
:1036C00004AB4FF0FF3061074FF0000102D40DE072
:1036D00008F101018846B9420FDA8045F8DB1AF893
:1036E00008100029F4D108E008F101018846814260
:1036F000FADB1AF808100029F6D105985B46A0EB12
:10370000080721463846179A00F094FA284400EB3F
:10371000080507E04DE029E10DE01AF8010B5A46D3
:1037200017999047B8F10108F7D25B462146384611
:10373000179A13E142E00A220092C4F302524FF0BA
:10374000000A022A08D059F804CB032A4FEAEC7188
:103750000AD00DE029E02AE009F1070121F0070273
:10376000F2E802C1914609E00FFA8CFC4FEAEC71D5
:10377000042A03D14FFA8CFC4FEAEC71002907DAD6
:103780000A460021DCF1000C61EB02012D2202E06F
:10379000220504D52B228DF80420012203E0E20744
:1037A00001D02022F7E7904659E00A2102E01022DA
:1037B0000DE010214FF0000A00910BE010224FF0B5
:1037C000000A44F004040827009203E008224FF0A6
:1037D000000A0092C4F30252022A05D059F804CB21
:1037E0000021032A08D009E009F1070121F00702AE
:1037F000F2E802C1914605E01FFA8CFC042A01D1CF
:103800000CF0FF0C4FF00008220728D5702806D0D6
:10381000009B83F0100353EA0A0305D00EE0402218
:103820008DF80420012208E05CEA010206D0302273
:103830008DF804208DF8050002229046009B83F04D
:10384000080353EA0A030AD15CEA010201D16207C4
:1038500005D530228DF804204FF001087F1E58282E
:1038600004D034A003900EA802900DE036A0F9E732
:1038700053466046009AFCF73FFF84460398825CFB
:103880000298401E029002705CEA0100F0D102989A
:1038900006A9081A00F1200A600702D524F4803432
:1038A00000E00127574502DDA7EB0A0000E00020F9
:1038B00000EB0A01009005984144401A0590E0038E
:1038C00006D45B462146179A059800F0B3F90544E3
:1038D000002706E001A85A46C05D179990476D1C65
:1038E0007F1C4745F6DBE0030CD55B462146179A63
:1038F000059800F09FF9054404E030205A461799D6
:1039000090476D1C0099481E00900029F5DC08E0E6
:10391000029802995A460078491C029117999047DB
:103920006D1CBAF10001AAF1010AF1DC65E10000A9
:103930000928010030313233343536373839616285
:103940006364656600000000303132333435363749
:1039500038394142434445460000000000F058F920
:103960000544761C307800287FF4ECAD19B0284669
:10397000BDE8F08F620700D4062709F1070222F0A4
:10398000070CFCE80223E14603F000485FEA080C5C
:1039900002D00FF2702C0DE05FEA045C02D50FF24A
:1039A000682C07E05FEAC47C02D00FF2602C01E0D3
:1039B000AFF2700C4FF0FF3823F00043CDF850C049
:1039C00065280CD006DC452809D046281DD047289C
:1039D0003DD13DE0662818D067287ED138E000212F
:1039E000112F01DB112000E0781CCDE9000106A9B0
:1039F0000EA8FFF7DDFCDDE90F010E9A039100210F
:103A0000009207F1010A04914DE04FF00040009749
:103A1000CDE9011006A90EA8FFF7CAFCDDE90F02E7
:103A200003920E9B11990022DDF80CA000930492E2
:103A300011B9791C00EB010AB7EB0A0004D4C0F1FC
:103A4000FF3007F1010A0490AAEB0700019044E05F
:103A5000012F00DA01270021112F01DD112000E0E4
:103A60003846CDE9000106A90EA8FFF7A1FCDDE963
:103A70000F010E9A0391002104910092BA4621078A
:103A80000CD40399514500DA8A46BAF1010F05DDDD
:103A9000009AAAF10101515C302908D0B84202DA3B
:103AA00010F1040F06DA0121CDE9011015E0AAF1A9
:103AB0000101E9E7002805DC049901440491AAEB1F
:103AC000000102E0411C514500DD8A460499401A7C
:103AD000401C01904FF000400290200704D4019850
:103AE000504501DBCDF8048000208DF84F0002988E
:103AF0000DF14F07B0F1004F25D02B200E9002980A
:103B00004FF0020800280CDA404202902D200E905F
:103B100007E00A210298FCF7D9FD3031029007F83E
:103B2000011DB8F10001A8F10108F2DC029800289B
:103B3000EFD1791E0E980870307800F0200040F028
:103B4000450007F8020D12A8C01B00F107081498E1
:103B5000007800B1012000EB0A01019801EBE0714F
:103B600005984144401A401E0590E00306D45B4688
:103B70002146179A059800F05DF8054414980078DE
:103B800018B15A46179990476D1CE00324D55B463F
:103B90002146179A059800F04DF805441CE004985A
:103BA000002807DBDDE90301884203DD0098405C63
:103BB000179901E0179930205A469047049805F16B
:103BC0000105401C04900198401E019004D12E2054
:103BD0005A46179990476D1CBAF10001AAF1010AE3
:103BE000DDDC05E017F8010B5A46179990476D1C6C
:103BF000B8F10001A8F10108F4DC5B462146179AF0
:103C00000598ABE62D0000002B000000200000000E
:103C10002DE9F041044600251E461746880404D4C9
:103C200005E039462020B0476D1C641EF9D52846B2
:103C3000BDE8F0812DE9F041044600251E4690467E
:103C4000C80301D5302700E02027880404D505E00B
:103C500041463846B0476D1C641EF9D52846BDE87C
:103C6000F0810A68531C0B60107070474FF0E02120
:103C70000A6922F004020A610649C00800EB40020A
:103C80000870C2EBC0104FF6FF7202EAC000488015
:103C900070470000000000200849498848434FF061
:103CA000E02148610020886101220A610A69D30786
:103CB00001D0D203FAD50861886170470000002066
:103CC0000849097848434FF0E021486100208861A5
:103CD00001220A610A69D30701D0D203FAD508612B
:103CE000886170470000002096B0FDF7B9FCFFF72F
:103CF000E2F8FEF7B7FF8A48416941F001014161EE
:103D00004069002200F00100009011460B20FDF7F1
:103D100009FD0B20FDF7F8FCFEF784FFFFF74EF8D6
:103D2000814880494FF0000901604FF4E131C0E95A
:103D300001190C22C0F80C90C0E90492C0F8189048
:103D4000C0F81C90FEF709FCFFF708F8FFF760F8D1
:103D500075489038FEF7B4F873484838FEF7B0F865
:103D6000FFF7DAF84820FFF781FFFEF7CDFD0122CB
:103D700091026E48FDF760FC6B480421D838FEF7CD
:103D8000B3FAFCF7B5FEFCF7B5FEDFF8A4A1DFF847
:103D9000A4B1C8464FF6E0754FF6FF764FF478476A
:103DA000D020FCF7D9FEFCF731FF544662A101A8F0
:103DB000DAF84020FFF738FA60A0002300902A4686
:103DC0003C211846FCF7DAFF5A4901A8091DFCF707
:103DD000CBF9009033463A463C214020FCF7CEFF19
:103DE000A06CFCF744FC02460B4656A104A8FFF762
:103DF0001BFA56A0002300902A4650211846FCF7D3
:103E0000BDFF4C4904A8C91DFCF7AEF9009033462C
:103E10003A4650214020FCF7B1FF606CFCF709FCEA
:103E200000224C4BFCF78DFB02460B4645A107A830
:103E3000FFF7FAF948A0002300902A4664211846AB
:103E4000FCF79CFF3B4907A80A31FCF78DF900906D
:103E500033463A4664214020FCF790FF9BF801006E
:103E60005C46012821D108F101083DA110A8E26BB0
:103E7000FFF7DAF942463AA113A8FFF7D5F939A0BE
:103E8000002300902A4619461846FCF777FF294977
:103E900010A85031FCF768F9009033463A460021EB
:103EA0004020FCF76BFF84F80190206BFCF7DFFBF0
:103EB00002460B4623A10AA8FFF7B6F92BA0002360
:103EC00000902A4614211846FCF758FF19490AA801
:103ED0005531FCF749F9009033463A461421402009
:103EE000FCF74CFF606BFCF7C2FB02460B4621A1BE
:103EF0000DA8FFF799F921A0002300902A46282158
:103F00001846FCF73BFF0B490DA85B31FCF72CF979
:103F1000009033463A4628214020FCF72FFF3FE728
:103F20000010024000440040D0010020000C01407D
:103F30007C00002004000020256C64007072652065
:103F400000000000252E316600000000616C7469DD
:103F5000200000000000244074656D702000000007
:103F60002564000042504D2000000000737065651C
:103F700064200000252E3266000000006D696C652B
:103F8000200000002DE9F04D1D460C4698B0174664
:103F900021F0004123F00043002814BF4FF0010C32
:103FA0004FF0000C0CEB440CFE4A0CEB02064FEAFF
:103FB000620C66452BD33E0018BF012606EB450672
:103FC0001644F94A964222D3F84A53EA070C02D023
:103FD000944205D148B918B000201146BDE8F08DD3
:103FE000002808BF4FF0000C01D04FF0010C0CEB83
:103FF000440212F5001F0AD8002F14BF4FF0010C25
:104000004FF0000C0CEB450212F5001F07D918B059
:104010003A462B462146BDE8F04DFFF79BB90022FA
:10402000DFF88CA3002CB8BF534526DADFF884C331
:104030006345A8BF022220DADFF870C39C451CDC70
:10404000DFF874C30CEB235CBCF1140F08DDCCF17A
:10405000340627FA06FC0CFA06F6BE420DD108E03B
:104060005FB9CCF1140623FA06FC0CFA06F69E4260
:1040700003D10CF00102C2F1020251EA000C19D185
:10408000002D17DA002C18BF022A01D0012A07D010
:104090000220FFF787F918B0BDE8F04DFFF752B9DD
:1040A0000220FFF77FF9FFF74DF918B081F00041CA
:1040B000BDE8F08DB7F1000C6CD1534525D104F16A
:1040C000804212F5801201BF00280020B74918B0C5
:1040D00008BFBDE8F08DB548884207DC002DA1BFC0
:1040E0006046294618B0BDE8F08D07E0281E05DAC5
:1040F00080F0004118B06046BDE8F08DAF497944CA
:10410000D1E9000118B0BDE8F08DDFF8A0C2634529
:1041100025D1002D1FDA19B1514512D1D8B909E0C6
:10412000002840F0EC82A24A214618B062F31E013A
:10413000BDE8F08D0020214618B060F31E01BDE8F7
:10414000F08D08DA18B02346BDE8F04D0246002095
:104150006146FCF7F6B918B02146BDE8F08D51452F
:1041600018DAB5F1804F0DD0A5F1005CBCF1FF5C11
:1041700010D1B4F1000C0DDB18B06146BDE8F04D74
:1041800000F0ECBB234618B00246BDE8F04D1946DE
:10419000FCF765B9060024F0004C3BD1D9B151457C
:1041A00033D1002C06DD002DA1BF0020514618B0F0
:1041B000BDE8F08D002C01DD002D1BDB002C13DA97
:1041C000002D11DB012A4FF0000014BF78497C4913
:1041D00018B0BDE8F08D022A18BF002C0AD0012AC1
:1041E00008D1002C06DA0AE0002CB8BF002D11DA45
:1041F000012A04D0002018B00146BDE8F08D18B0A7
:1042000000204FF00041BDE8F08DA1F14050B0F129
:104210007F601AD0012000EBE47050EA020421D044
:10422000624C521E4FF0000B104304BF4FF0000BC6
:10423000644C654883427CDD644A654893421FDDD7
:10424000884217DB002D25DB37E0002C00DA4AB16D
:10425000022A0CBF01204FF0FF3018B0BDE8F04D2E
:10426000FCF7E7B90120FFF79DF818B0BDE8F04D65
:10427000FFF772B84D4A8A4202DC002D0ADC1CE0CE
:10428000814202DA002D18DA04E0484B994220DD21
:10429000002D12DD0220FFF785F8FFF763F80546D1
:1042A0000E460022534658462146FCF7D8F818B06F
:1042B00066F31E012846BDE8F08D0220FFF772F874
:1042C000FFF758F80A46214618B062F31E01BDE810
:1042D000F08D002230466146FCF7BBF880460E4662
:1042E0006FF00102FCF7EEFA4FF05532394BFCF754
:1042F000B3F842463346FCF7B2F80022364BFCF7DF
:10430000ABF8824642463346049110461946FCF704
:10431000A6F85246049BFCF7A2F88A4600904FF09C
:10432000C0422E4B40463146FCF799F82C4A2B4BA5
:1043300000E027E0CDE9060151460098FCF78FF830
:1043400082460191274A284B40463146FCF787F8C0
:104350005246019BFCF77DF882460B4602460591CA
:10436000DDE90601FBF7D4FFDDE9062300268846D8
:104370003046FCF76EF85246059BFCF76DF8024696
:1043800000F07EB90020B1F5801F07DA35223046F3
:104390006146FCF797FA06466FF0340000EB2150B7
:1043A00024E00000FFFF1F00FFFF0F000000F03FB0
:1043B0000000F07F0000404301FCFFFF1E230000CF
:1043C0000000F0FF0000F0BF0000E0410000F043FB
:1043D000FFFFEF3F5555D53F0000E03F4715F73F42
:1043E000FE822B6544DF5DF80BAE543EA0F2FF3039
:1043F0000190C1F3130040F07F6141F04051029100
:10440000FE498842D8BF002004DDFD498142C8BF73
:10441000012001DD0D9008E000200D900198401C66
:1044200001900298A0F5801002900299F548784416
:104430000B910D9900EBC100D0E900230F9330469A
:104440000A920B99FCF705F8CDE90601DDE90A218E
:1044500030460F9BFBF75CFF02460B460020EA4903
:10446000FCF76FF8059102460B460090DDE9060166
:10447000FBF7F5FF1490E5488A464FF000087844B2
:104480000299006812904FF0005040EA61010D98C7
:104490000F9B01EB804000F5002109910A9A1298C8
:1044A000FBF7D7FF32460B9BFBF7D6FF424653463E
:1044B000FBF7D5FF0646029140465146099B129AEA
:1044C000FBF7CDFFDDE90623FBF7C6FF3246029B73
:1044D000FBF7BFFF059B009AFBF7C1FF0091149A01
:1044E0000490534610461946FBF7B9FF06460246AC
:1044F000C7480B46029106217844FEF7CDFECDE970
:104500000510029B324610461946FBF7A8FFDDE96D
:104510000532FBF7A4FF059106465346404619466F
:10452000149AFBF7F5FE009B049AFBF798FF3246BE
:10453000059BFBF7EDFECDE90510424653461046BC
:104540001946FBF78CFF0022B24B02910A90FBF751
:10455000DFFEDDE90532FBF7DBFE0E464246AD4BE2
:104560004046FBF776FF029B0A9AFBF772FFDDE9F4
:104570000532FBF771FF424602910A90334610461E
:104580005146FBF76CFFCDE906015346149A029998
:104590000A98FBF764FF8A46029033464246009928
:1045A0000498FBF75CFF5346029AFBF7B1FE824684
:1045B0000B4602460591DDE90601FBF7A9FEDDE9A0
:1045C0000623002088460646FBF743FF5246059B1C
:1045D000FBF742FF824609914FF060428E4B304616
:1045E0004146FBF73CFF049006918C4A8A4B5046AB
:1045F0000999FBF734FF82460291894A894B30467C
:104600004146FBF72CFF5246029BFBF781FE864B8F
:104610007B440D9A03EBC203D3E90023FBF778FE3A
:104620000E9007910198FCF704F80591DDE9061357
:1046300082460E9A0498FBF76BFE7C4A7A440D9BE7
:1046400002EBC303D3E9002300930292FBF760FE61
:104650005246059BFBF75CFE0026884652463046D4
:10466000059BFBF7F6FE009B029AFBF7F2FE069B0A
:10467000049AFBF7EEFE079B0E9AFBF7EDFE02464F
:1046800000200B46029038462946FBF7E8FE82469A
:1046900001912B4638461946029AFBF7DAFE32465C
:1046A0004346FBF7DCFE5246019BFBF731FE074613
:1046B0008A463246434629460298FBF7D0FE054615
:1046C0000E463A465346FBF723FE594A8846914226
:1046D00021DBA8EB020353EA000210D12A4633463D
:1046E000FBF7B7FECDE90401524A534B3846514619
:1046F000FBF70EFEDDE90423FCF714F921D20220BA
:10470000FEF750FEFEF72EFE0A46214618B062F371
:104710001E01BDE8F08D494B28F000429A4210D3AB
:10472000474A08EB020353EA00027FF4C6AD2A466B
:104730003346FBF78EFE3A465346FCF7F3F87FF616
:10474000BCAD0022019228F000403E493E4A01EBF8
:104750002051824223DA481C4FF4801121FA00F0E4
:1047600040443A4AC0F30A517A44394BA1F2FF312E
:10477000CB4020EA0303C0F3130040F48010C1F1E2
:104780001401C84012680190B8F1000FBCBF40424C
:10479000019028463146FBF75CFE05460E462A4648
:1047A000334638465146FBF7B3FD4FF0000842460A
:1047B000284B40460591FBF752FECDE90601264AFB
:1047C000264B40460599FBF74AFE009102902A4687
:1047D000334640460599FBF73CFE3A465346FBF705
:1047E0003BFE1F4A1F4BFBF73AFE009B029AFBF76A
:1047F0008FFD0746884602460B4635E08E9803003B
:104800007AB60B00661F00000000F03F9E1F0000FC
:10481000CC1E00000000084009C7EE3FFD033ADC53
:10482000F5015B14E02F3EBEA41D0000681D0000D2
:1048300000009040FE822B654715973C00CC9040CD
:1048400000346F3F01FCFFFF0000E03FB41C00009C
:10485000FFFF0F00432EE63F396CA80C615C20BEC1
:10486000EF39FAFE422EE63FDDE90601FBF750FD87
:10487000DDE9062305460E46FBF7EBFD3A464346C7
:10488000FBF7EAFD0F462A463346009010461946CC
:10489000FBF7E5FD824602462E4888460B46052179
:1048A0007844FEF7F9FC52464346FBF7D8FD2A460A
:1048B0003346FBF7D1FD80468A463B4628463146C3
:1048C000009AFBF7CCFD3B46009AFBF721FD0691D1
:1048D000009000224FF0804340465146FBF7B9FD5F
:1048E0000F460C904246534628463146FBF7B7FD2B
:1048F0003B460C9AFBF725FE069B009AFBF7A9FDA9
:104900002A463346FBF7A5FD0022134BFBF7A4FD17
:10491000054601980E4601EB00510815002810DCF1
:1049200028463146019AFBF7CDFFFEF791FC04289B
:1049300008BFFEF71FFD28463146019AFBF7C2FF6C
:1049400005460B4618B02A4658462146BDE8F04DAC
:10495000FBF785BD541B00000000F03F2DE9F0413E
:1049600006460F46FCF708F8041E0D4618BF012046
:10497000284320F00040C0F17F6000F1E040C00F0C
:104980000ED0301C18BF0120384320F00040C0F189
:104990007F6000F1E040C00F04BF0120FEF702FD80
:1049A00020462946BDE8F08100000000000000001C
:1049B0000000000000000000001010101010101087
:1049C000101000001010000000006C6C2424000087
:1049D00000000100000000000024242424FE4848B8
:1049E0004848FC909090900000103C5492905038B1
:1049F00014121292547810000000225C94A84810FF
:104A000010242A5254880000000030484850206E7C
:104A100054948C888A74000000003030101000001C
:104A200000000000000000000004081010202020FA
:104A300020202010100804000080402020101010BA
:104A4000101010202040800000000000105438108A
:104A5000385410000000000000000010101010FE7C
:104A60001010101000000000000000000000000006
:104A7000000000001010200000000000000000FEF8
:104A80000000000000000000000000000000000026
:104A900000000000101000000000040408081010BE
:104AA00020204040808000000000384482828282C2
:104AB00082828282443800000000107010101010B2
:104AC00010101010107C000000003844828204088E
:104AD0001020408284FC0000000038448202043828
:104AE00004020282443800000000040C1414242440
:104AF0004444FE04040E00000000FC808080B8C422
:104B0000820202828478000000003C428280B8C4A5
:104B1000828282824438000000007E4282040408BF
:104B20000808101010100000000038448282443839
:104B300044828282443800000000384482828282AB
:104B4000463A0282443800000000000010100000C5
:104B50000000101000000000000000001010000015
:104B60000000001010200000000000000618608007
:104B70006018060000000000000000000000FE00B9
:104B800000FE00000000000000000000C0300C0229
:104B90000C30C0000000000000384482820204088B
:104BA000101010001010000000003844829AAAAAC9
:104BB000AAAAAA9680423C000000101010282828BB
:104BC00044447C4444EE00000000FC424242427CEB
:104BD0004242424242FC000000003C44828080800D
:104BE00080808282443800000000F8444242424201
:104BF0004242424244F800000000FC444240447CEF
:104C00004440404244FC00000000FC444240447CDC
:104C10004440404040F000000000344C82808080DE
:104C20008E8484844C3400000000EE444444447C70
:104C30004444444444EE000000007C101010101066
:104C400010101010107C000000003E080808080832
:104C500008080888887000000000EE44484850604A
:104C60005048484444EE00000000E04040404040CE
:104C70004040404244FC00000000C6446C6C6C5450
:104C80005454444444EE00000000CE446464645430
:104C9000544C4C4C44E40000000038448282828230
:104CA00082828282443800000000F844424242443A
:104CB0007840404040E00000000038448282828218
:104CC000828282BA443C02000000F04844444448D6
:104CD0007048444444E6000000003C448280403078
:104CE0000C0202824478000000007C5492101010E4
:104CF00010101010103800000000EE4444444444EA
:104D000044444444443800000000EE4444444428F1
:104D100028282810101000000000EE445454545469
:104D200054542828282800000000EE444428281065
:104D30001028284444EE00000000EE4444282828AF
:104D4000101010101038000000007E448408081075
:104D50002020408284FC0000001C10101010101055
:104D60001010101010101C000000EE445454FE549B
:104D7000545428282828000000701010101010101B
:104D80001010101010107000003048840000000057
:104D90000000000000000000000000000000000013
:104DA000000000000000FE000040200000000000A5
:104DB00000000000000000000000000000007884F7
:104DC000047C84848C7600000000C040404058641D
:104DD0004242424264580000000000000000384493
:104DE000808080804438000000000C040404344CAF
:104DF000848484844C360000000000000000788425
:104E000084FC808084780000000018242020F82092
:104E100020202020207000000000000000003A4404
:104E20004478807C82827C000000C040404058640E
:104E30004444444444EE00000000101000003010D0
:104E4000101010101038000000001010000030107A
:104E500010101010109060000000C04040405C48EE
:104E60005060504844EE0000000030101010101147
:104E70001010101010390000000000000000ACD22B
:104E80009292929292D6000000000000000058E436
:104E90004444444444EE0000000000000000384454
:104EA0008282828244380000000000000000D86442
:104EB000424242645840E000000000000000364CCE
:104EC0008484844C34040E000000000000006C3028
:104ED00020202020207000000000000000007888C2
:104EE0008460188444780000000000202020F8200E
:104EF0002020202024180000000000000000C642EE
:104F000042424242463A0000000000000000EE44E7
:104F10004428282810100000000000000000EE4483
:104F20004454542828280000000000000000EE44EB
:104F30002810102844EE0000000000000000EE449D
:104F40004428281010A0C0000000000000007E448B
:104F50008810204284FC0000000C1010101010601B
:104F60001010101010100C00001010101010101065
:104F7000101010101010100000C020202020201849
:104F8000202020202020C00000000000000000722F
:104F90008C000000000000000000000000001FE086
:104FA00000003FF000003FF000001FE0000180061D
:104FB0000003C00F0003C00F0003C00F0003C00FA9
:104FC0000003C00F0003C00F0003C00F0003C00F99
:104FD00000030003000000000000000000000000CB
:104FE000000300030003C00F0003C00F0003C00F45
:104FF0000003C00F0003C00F0003C00F0003C00F69
:105000000003C00F0001800600001FE000003FF019
:1050100000003FF000001FE0000000000000000062
:105020000000008000000180000003800000078075
:105030000000078000000780000007800000078054
:105040000000078000000780000007800000078044
:1050500000000180000000000000000000000000CF
:10506000000001800000078000000780000007802A
:105070000000078000000780000007800000078014
:10508000000007800000078000000380000001800E
:1050900000000080000000000000000000001FE091
:1050A00000003FF00000FFF00001FFE000000006FC
:1050B0000000000F0000000F0000000F0000000FB4
:1050C0000000000F0000000F0000000F0000000FA4
:1050D00000001FE300007FF800007FF800001FE0E1
:1050E000000300000003C0000003C0000003C00074
:1050F0000003C0000003C0000003C0000003C000A4
:105100000003C0000001800000001FF000003FF815
:1051100000003FFC00001FFE000000000003FF80B5
:105120000001FFC00000FFC000007F8000000018E9
:105130000000003C0000003C0000003C0000003C7F
:105140000000003C0000003C0000003C0000003C6F
:1051500000007F8C0001FFE00001FFF000007F8075
:105160000000000C0000003C0000003C0000003C7F
:105170000000003C0000003C0000003C0000003C3F
:105180000000003C0000001800007F800000FFC00D
:105190000001FFC00003FF800000000000000000CD
:1051A0000002000100030003000380070003C00F9A
:1051B0000003C00F0003C00F0003C00F0003C00FA7
:1051C0000003C00F0003C00F0003C00F0003C00F97
:1051D00000031FE300007FF800007FFC00001FE0D9
:1051E000000000030000000F0000000F0000000F8F
:1051F0000000000F0000000F0000000F0000000F73
:105200000000000F0000000F000000070000000376
:1052100000000001000000000000000000001FFC72
:1052200000003FF800003FF000001FE00001800098
:105230000003C0000003C0000003C0000003C00062
:105240000003C0000003C0000003C0000003C00052
:1052500000031FE000007FF800007FF800001FE05F
:10526000000000030000000F0000000F0000000F0E
:105270000000000F0000000F0000000F0000000FF2
:105280000000000F0000000600003FE000007FF07B
:105290000000FFF00001FFE00000000000001FFC24
:1052A00000003FF800003FF000001FE00001800018
:1052B0000003C0000003C0000003C0000003C000E2
:1052C0000003C0000003C0000003C0000003C000D2
:1052D00000031FE000007FF800007FFC00001FE0DB
:1052E000000300030003C00F0003C00F0003C00F42
:1052F0000003C00F0003C00F0003C00F0003C00F66
:105300000003C00F0001800600001FE000003FF016
:1053100000003FF000001FE0000000000007FFE079
:105320000003FFC00001FF880000FF1800000038E4
:10533000000000780000007800000078000000788D
:10534000000000780000007800000078000000787D
:105350000000001800000000000000000000000035
:1053600000000018000000780000007800000078BD
:10537000000000780000007800000078000000784D
:1053800000000078000000780000003800000018DD
:1053900000000008000000000000000000001FE006
:1053A00000003FF000003FF000001FE00001800619
:1053B0000003C00F0003C00F0003C00F0003C00FA5
:1053C0000003C00F0003C00F0003C00F0003C00F95
:1053D00000031FE300007FF800007FFC00001FE0D7
:1053E000000300030003C00F0003C00F0003C00F41
:1053F0000003C00F0003C00F0003C00F0003C00F65
:105400000003C00F0001800600001FE000003FF015
:1054100000003FF000001FE00000000000001FE05F
:1054200000003FF000003FF000001FE00001800698
:105430000003C00F0003C00F0003C00F0003C00F24
:105440000003C00F0003C00F0003C00F0003C00F14
:1054500000031FE300007FF800007FFC00001FE056
:10546000000000030000000F0000000F0000000F0C
:105470000000000F0000000F0000000F0000000FF0
:105480000000000F0000000600001FE000003FF0D9
:1054900000007FF00000FFE00000000000000000BE
:1054A00000000000000000000000000000000000FC
:1054B00000000000000000000000000000000000EC
:1054C00000000000000000000000000000000000DC
:1054D00000000000000000000000000000000000CC
:1054E0000000000000000000000000000000780044
:1054F00000007800000078000000780000007800CC
:105500000000780000000000000000000000000023
:10551000000000000000000000000000000000008B
:10552000000000000000000000000000000000007B
:1055300000000000000000000000070000000F80D5
:1055400000000F8000000F80000007000000000036
:10555000000000000000000000000000000000004B
:10556000000000000000070000000F8000000F8016
:1055700000000F8000000700000000000000000095
:10558000000000000000000000000000000000001B
:10559000000000000000000000000000000000000B
:1055A00000000000000000000007C006000FE00639
:1055B0000000000C003018180030181800301830A7
:1055C0000030183000301860003008C00007C0C03C
:1055D000000FE080000000000000000FE000060760
:1055E000C000063018000C3018000C3018001830BD
:1055F0001800303018003030180060000000C00F74
:10560000E000C007C0000000000000000000000033
:10561000000000000000000000000000000000008A
:10562000000000000000000000000000000000007A
:10563000000700E0000887FC00088E0300089801BE
:10564000800718008000300000003000000070006B
:1056500000006000000060000000600000006000CA
:10566000000060000000700000003000000030000A
:10567000000038000000180100000C03000007FCC7
:10568000000001F000000000000000000000000029
:10569000000000000000000000000000000000000A
:1056A00000000000000000000000000000000000FA
:1056B00000000000000000000000000000000000EA
:1056C00000000000000000000000000000000000DA
:1056D0000000000000003FF000007FF000007FE0CD
:1056E0000000FFC0000000000000000000000000FB
:1056F00000000000000000000000000000000000AA
:105700000000000000000000000000000000000099
:1057100000000000000000000000B5E702000200E9
:1057200002007FF0421042107FF0421042107FF0E2
:1057300042000208020801F800000000D7D37FF001
:1057400000200040008001000200FFF8020002007B
:1057500002000200020002000E0000000000C8ABC0
:105760000100010002800440082010102FE8C1064B
:10577000010001001FF00100010001007FFC00009A
:10578000B6AF004000407C40004001FC0044FE44B5
:1057900020442044208448844484FD044504022895
:1057A0000410BCBC10201020102013FEFC20102080
:1057B000102015FC18843088D0481050102010504C
:1057C00051882606CAF501000120011001107FFC56
:1057D0000380054005400920111021084104010201
:1057E000010001000100D2BA0080404027F81140BA
:1057F00001408278424816A81AD023502220422025
:105800004250028800000000BEA73FE020203FE099
:1058100020203FE00000FDF885088508FDF8850898
:105820008508FDF8850800000000B2E200084F88F6
:1058300028880AA88AA84AA80AA82AA82AA8422822
:10584000450884888888103800000000CAD4405079
:10585000204820400FF80040E040274022402240EE
:1058600022202A2833A82E18000800000000B3CCFC
:1058700000001BF0E210221023F0F800200033F0AB
:1058800068806080A3F02080208027F8000000005E
:10589000D0F2020001003FF820002FF0202022402B
:1058A00021803FF820882090408040808380000045
:1058B0000000D1D5200010F87E20444028F87E88D2
:1058C00048A850A864A848A872A8845018886108FD
:1058D00000000000C9AB100010003FE04040808095
:1058E0007FF04210421042107FF040004008400814
:1058F0003FF800000000CCEE20802FF8208027F039
:10590000F41027F0241027F0241027F03410CFF8DB
:105910000220041000000000B3E404000200FFF8BD
:105920000800104020207FF0089008800880088040
:1059300010882088C07800000000CEC40400020057
:105940000200FFF8104010400880088005000200A7
:10595000050008803060C01800000000D7D60400A1
:105960000200FFF8800880083FC0008001000200AC
:10597000FFF80200020002000E0000000000CFD479
:105980003FE0202020203FE0202020203FE0088032
:105990004890289028A008800880FFF800000000A8
:1059A000CABE00003FE0000000000000FFF8020057
:1059B0001240122022104208820802000E0000004D
:1059C0000000CDBC7FF84008440847C848485488C8
:1059D00043084CC8733840884C08430840887FF817
:1059E00000000000C6AC00802080208020803FF0B6
:1059F0002000200020003FC02040204020404040A8
:105A0000804000000000B4A520403840484091F09C
:105A10007D50555055507D5055F054407C40545069
:105A200057F88C0800000000C3FE2220222027F82F
:105A3000FA2027F0241027F03410E7F020802FF808
:105A400021402220EC1800000000CAE440804140C0
:105A5000F22044108BE8A000F78824A827A834A8D7
:105A6000E7A824A8248825B800000000C8EB080097
:105A70000400040002000200050005000880088000
:105A80001040104020204010800800000000C8ABEB
:105A9000020002000500088010402020DFD802002C
:105AA00002001FC0020002000200FFF80000000018
:105AB000B3CC00001BF0E210221023F0F80020000D
:105AC00033F068806080A3F02080208027F80000F9
:105AD0000000BCBC208020802080F7F02080208047
